:1000000075800075A00075B0007A00781680090030
:100010000000000000000A0A7140790B75800B9007
:100020000300EA93F5A0A3EA93F5B0A3D9F4D8DFCF
:0200300080CE80
:1003000000000000000000000000000000000000ED
:1003100000000000E187E143E5C4E5C7E143C81000
:10032000E043C813E247E0C7204322470000000033
:1003300000000000000000000000000000000000BD
:10034000715B71687D0F758901758A00758C00D2AB
:100350008C308DFDC28CC28DDDEF227DAA7162DDF5
:10036000FC227E1B00DEFE227D7F716FDDFC227E83
:0403700017DEFE2274
:00000001FF
