:100F7600000000000000000000000000000000006B
:040F86000000000067
:03000B00020F5A87
:100F5A00C0D075D000C00730980BAF99752B008FA1
:0C0F6A002CC2988002C299D007D0D0326F
:100DAB00E4F508F509780A7C00FD7BFF7A0F79766C
:100DBB00FE7F14120C06751E00751F64C297758991
:100DCB0021758DF6758C3C758AAF75985075A8900A
:100DDB00D28E7B007A00790AAD2CAC2B120E8B8E47
:100DEB00208F21C3E5206480948040067C007D7FAA
:100DFB00800DC3E49521FFE49520FE7C007D8012DD
:100E0B000C2CAC06AD07EC120A7C8F258E248D239F
:100E1B008C22E4FFFE7D807C3EAB25AA24A923A86F
:100E2B00221209FE60294027308D1EE51F451E70DA
:100E3B00028022C28CC28D758C3C758AAFE51F1562
:100E4B001F7002151ED28C8089D297D28C8083E5BD
:100E5B001F451E7014C297C28CC28D758C3C758A4F
:100E6B00AFF51E751F64020DDDC28CC28D758C3CF7
:100E7B00758AAFE51F151F7002151ED28C020DDD92
:0A0E8B008C298D2A8B268A278928DE
:100E95007F007E007D007C00900004120C90900085
:100EA50008120CDA120C70900004120CDA9000048F
:100EB500120C907BEF7ACA79F4783F1208F8C004D7
:100EC500C005C006C007AC29AD2AEC120A7CD003C8
:100ED500D002D001D000120807C004C005C006C06A
:100EE50007AB26AA27A928900008120C907BC57A83
:100EF500AB797C783F1208F8A804A905AA06AB07C8
:100F0500D007D006D005D004120803AB26AA27A91E
:100F150028120CC0AB26AA27A928900008120C900D
:100F25007BBB7A0E79D5783B1208F8C004C005C0A2
:100F350006C007AB26AA27A928120C707BBB7A0E20
:100F450079D5783B1208F8D003D002D001D0001231
:050F55000803020AB5CB
:10080000020B21E86480F8E933E83360110460F0FA
:10081000ED33EC337009E8FCE9FDEAFEEBFF22045E
:1008200060DED3EB9FEA9EE99DE8C2E78CF0C2F759
:1008300095F0400CE8CCF8E9CDF9EACEFAEBCFFB25
:10084000120AEC85D0F05804700320D5B3E8047088
:10085000075002B2D5020B2B92D5EC0460F7E4CC22
:10086000C0E0C398F8603B94186008400DD0E0FBEE
:10087000020B03E4FBFAC9FC8028E830E406E4C973
:10088000FBE4CAFCE830E305E4C9CACBFCE8540742
:100890006010F8C3E913F9EA13FAEB13FBEC13FC4D
:1008A000D8F130F52FC3E49CFCEF9BFFEE9AFEEDF0
:1008B00099FDD0E0FBEF4E4D4C701222DB03020B92
:1008C00028EC2CFCEF33FFEE33FEED33FDED30E78B
:1008D000EB020B03EF2BFFEE3AFEED39FDD0E0FB10
:1008E00050130BBB0003020B2BED13FDEE13FEEFB9
:0808F00013FFEC13FC020B03E3
:1008F800EC4D6011E8497017ED33EC3304600DE4FA
:10090800FCFFFEFD22E933E8330470F8020B2112E4
:100918000AEC58046009E4CC2481500628500902E6
:100928000B2B284003020B28C0E0EB4A7044B98027
:1009380006D0E0FB020B17EF4E701CBD8008EBFFE2
:10094800EAFEE9FD80EBE98DF0A4FEE5F00209E19D
:10095800E9CDF9EAFEEBFFEF89F0A4FCE5F0CE89DA
:10096800F0A42EFFE435F0CD89F0A42DFEE435F097
:100978008067EF4E7005BD80D780C3EF8BF0A4ACC5
:10098800F0EE8BF0A42CFCE435F0F8EF8AF0A42C00
:10099800E5F038FCE433CB8DF0A42CFCE5F03BF813
:1009A800EE8AF0A42CFCE5F038F8E433CF89F0A403
:1009B8002CFCE5F038CF3400CE89F0A42FFFE5F009
:1009C8003EFEE433C98DF0A42EFEE5F039CD8AF061
:1009D800A42FFFE5F03EFEE43DFD33D0E0FB5007D9
:1009E8000BBB000F020B2BEC2CFCEF33FFEE33FE9E
:0609F800ED33FD020B03CC
:1009FE0074F8CC6480CCC86480C8F58204604FC3A0
:100A0E00EB9FF5F0EA9E42F0E99D42F0E89C45F03E
:100A1E00603C501DE5825FFFE582D313CB5BCBF4C8
:100A2E002B5582FB50280ABA002409B900200880F1
:100A3E001DE5825BFBE582D313CF5FCFF4C3132F8B
:100A4E005582FF50090EBE00050DBD00010CC3EB13
:100A5E009FF5F0EA9E42F0E99D42F0E89C45F06079
:090A6E0007CC4820E701B3EC229B
:100A770075F020800E75F010800575F0087D007EFA
:100A8700007F003392D530D503120C62EC3340104F
:100A9700EF33FFEE33FEED33FDEC33FCD5F0ED2203
:0E0AA700E5F0247EA2D513CC92E7CDCEFF223F
:100AB500EDD2E7CD33EC3392D524814006E4FFFE39
:100AC500FDFC22FCE4CFCECDCC24E0501174FF8098
:100AD500EDC3CC13CCCD13CDCE13CECF13CF047035
:070AE500F030D5DE020C62C7
:100AEC00E9D2E7C933E833F892D5EDD2E7CD33EC50
:070AFC0033FC5002B2D522C9
:100B0300EC30E7100FBF000C0EBE00080DBD000453
:100B13000BEB6014A2D5EB13FCED92E7FD2274FFFF
:100B2300FCFDFEFF22E480F8A2D574FF13FC7D8058
:030B3300E480EF6C
:03000000020F8A62
:0C0F8A00787FE4F6D8FD75812C020DABD9
:100B3600E709F608DFFA8046E709F208DFFA803EA1
:100B460088828C83E709F0A3DFFA8032E309F6088E
:100B5600DFFA8078E309F208DFFA807088828C83F6
:100B6600E309F0A3DFFA806489828A83E0A3F608AA
:100B7600DFFA805889828A83E0A3F208DFFA804C84
:100B860080D280FA80C680D4806980F2803380105B
:100B960080A680EA809A80A880DA80E280CA8033C4
:100BA60089828A83ECFAE493A3C8C582C8CCC5833C
:100BB600CCF0A3C8C582C8CCC583CCDFE9DEE7800C
:100BC6000D89828A83E493A3F608DFF9ECFAA9F08B
:100BD600EDFB2289828A83ECFAE0A3C8C582C8CCE1
:100BE600C583CCF0A3C8C582C8CCC583CCDFEADEFA
:100BF600E880DB89828A83E493A3F208DFF980CC5C
:100C060088F0EF60010E4E60C388F0ED2402B40454
:100C16000050B9F582EB2402B4040050AF232345FB
:060C26008223900B86738F
:100C2C00C2D5EC30E709B2D5E4C39DFDE49CFCEEE3
:100C3C0030E715B2D5E4C39FFFE49EFE120CFEC351
:100C4C00E49DFDE49CFC8003120CFE30D507C3E44C
:060C5C009FFFE49EFE2252
:0E0C6200C3E49FFFE49EFEE49DFDE49CFC22A3
:100C7000BB010789828A83020D5F5005E9F8020DE6
:100C800053BBFE05E9F8020D6B89828A83020D775A
:100C9000BB010DE58229F582E5833AF583020D5FFC
:100CA0005007E92582F8020D53BBFE07E92582F8BB
:100CB000020D6BE58229F582E5833AF583020D7713
:100CC000BB010789828A83020D935005E9F8020D62
:0A0CD00087BBFE05E9F8020D9F2224
:100CDA00BB010DE58229F582E5833AF583020D937E
:100CEA005007E92582F8020D87BBFE07E92582F83D
:040CFA00020D9F2226
:100CFE00BC000BBE0029EF8DF084FFADF022E4CCDA
:100D0E00F875F008EF2FFFEE33FEEC33FCEE9DECA2
:100D1E00984005FCEE9DFE0FD5F0E9E4CEFD22EDE8
:100D2E00F8F5F0EE8420D21CFEADF075F008EF2F32
:100D3E00FFED33FD4007985006D5F0F222C398FD23
:050D4E000FD5F0EA22C0
:0C0D5300E6FC08E6FD08E6FE08E6FF22CC
:0C0D5F00E0FCA3E0FDA3E0FEA3E0FF2207
:0C0D6B00E2FC08E2FD08E2FE08E2FF22C4
:100D7700E493FC740193FD740293FE740393FF22C2
:0C0D8700ECF608EDF608EEF608EFF62298
:0C0D9300ECF0A3EDF0A3EEF0A3EFF022D3
:0C0D9F00ECF208EDF208EEF208EFF22290
:00000001FF
